{
  "contractName": "Test",
  "abi": [
    {
      "anonymous": false,
      "inputs": [
        {
          "indexed": false,
          "name": "from",
          "type": "address"
        },
        {
          "indexed": false,
          "name": "active",
          "type": "bool"
        }
      ],
      "name": "Event1",
      "type": "event"
    },
    {
      "anonymous": false,
      "inputs": [
        {
          "indexed": false,
          "name": "from",
          "type": "address"
        },
        {
          "indexed": false,
          "name": "value",
          "type": "int256"
        }
      ],
      "name": "Event2",
      "type": "event"
    },
    {
      "constant": false,
      "inputs": [],
      "name": "testEvents",
      "outputs": [],
      "payable": false,
      "stateMutability": "nonpayable",
      "type": "function"
    }
  ],
  "bytecode": "0x6080604052348015600f57600080fd5b506101678061001f6000396000f300608060405260043610610041576000357c0100000000000000000000000000000000000000000000000000000000900463ffffffff1680630e5356ec14610046575b600080fd5b34801561005257600080fd5b5061005b61005d565b005b7f25db18fdac10fa20517dbdf1b61fa56940111a6de3b03c7f4ca204fc2f0ad356336001604051808373ffffffffffffffffffffffffffffffffffffffff1673ffffffffffffffffffffffffffffffffffffffff168152602001821515151581526020019250505060405180910390a17f8c274d7c08aed08867bfb2dd79467ef65d24737515bd587ea658bdde878c5dc2336003604051808373ffffffffffffffffffffffffffffffffffffffff1673ffffffffffffffffffffffffffffffffffffffff1681526020018281526020019250505060405180910390a15600a165627a7a7230582054b34d8bc14408fc5564b566192ee683878b747b7e35908a4cf45568580239890029",
  "source": "pragma solidity ^0.4.23;\ncontract Test {\n\n    event Event1(address from, bool active);\n    event Event2(address from, int value);\n    \n    function testEvents() public {\n        emit Event1(msg.sender, true);\n        emit Event2(msg.sender, 3);\n    }\n}",
  "sourcePath": "/home/wighawag/dev/validitylabs/truffle-test/contracts/Test.sol",
  "compiler": {
    "name": "solc",
    "version": "0.4.24+commit.e67f0147.Emscripten.clang"
  },
  "schemaVersion": "2.0.0",
  "updatedAt": "2018-05-25T10:59:46.017Z"
}